{
  "_format": "hh-sol-artifact-1",
  "contractName": "BuilderLaunchpad",
  "sourceName": "contracts/YouBuildRegistrar.sol",
  "abi": [
    {
      "anonymous": false,
      "inputs": [
        {
          "indexed": true,
          "internalType": "address",
          "name": "token",
          "type": "address"
        },
        {
          "indexed": true,
          "internalType": "address",
          "name": "creator",
          "type": "address"
        },
        {
          "indexed": false,
          "internalType": "string",
          "name": "name",
          "type": "string"
        },
        {
          "indexed": false,
          "internalType": "string",
          "name": "symbol",
          "type": "string"
        },
        {
          "indexed": false,
          "internalType": "uint256",
          "name": "supply",
          "type": "uint256"
        }
      ],
      "name": "TokenCreated",
      "type": "event"
    },
    {
      "inputs": [
        {
          "internalType": "uint256",
          "name": "",
          "type": "uint256"
        }
      ],
      "name": "allTokens",
      "outputs": [
        {
          "internalType": "address",
          "name": "",
          "type": "address"
        }
      ],
      "stateMutability": "view",
      "type": "function"
    },
    {
      "inputs": [
        {
          "internalType": "string",
          "name": "name",
          "type": "string"
        },
        {
          "internalType": "string",
          "name": "symbol",
          "type": "string"
        },
        {
          "internalType": "uint256",
          "name": "supply",
          "type": "uint256"
        }
      ],
      "name": "createToken",
      "outputs": [
        {
          "internalType": "address",
          "name": "",
          "type": "address"
        }
      ],
      "stateMutability": "nonpayable",
      "type": "function"
    },
    {
      "inputs": [],
      "name": "getAllTokens",
      "outputs": [
        {
          "internalType": "address[]",
          "name": "",
          "type": "address[]"
        }
      ],
      "stateMutability": "view",
      "type": "function"
    }
  ],
  "bytecode": "0x608060405234801561001057600080fd5b50610f41806100206000396000f3fe608060405234801561001057600080fd5b50600436106100415760003560e01c80632a5c792a146100465780635b06053014610064578063634282af1461008f575b600080fd5b61004e6100a2565b60405161005b919061020c565b60405180910390f35b6100776100723660046102fc565b610104565b6040516001600160a01b03909116815260200161005b565b61007761009d366004610369565b6101d5565b606060008054806020026020016040519081016040528092919081815260200182805480156100fa57602002820191906000526020600020905b81546001600160a01b031681526001909101906020018083116100dc575b5050505050905090565b60008084848433604051610117906101ff565b61012494939291906103c8565b604051809103906000f080158015610140573d6000803e3d6000fd5b50600080546001810182559080527f290decd9548b62a8d60345a988386fc84ba6bc95484008f6362f93160ef3e5630180546001600160a01b0319166001600160a01b03831690811790915560405191925033917f6e6ae68e7d7d45fbd855c40d1eaafa8de46c5fbec3ee26f1af88730e400bc92c906101c59089908990899061040f565b60405180910390a3949350505050565b600081815481106101e557600080fd5b6000918252602090912001546001600160a01b0316905081565b610ac68061044683390190565b6020808252825182820181905260009190848201906040850190845b8181101561024d5783516001600160a01b031683529284019291840191600101610228565b50909695505050505050565b634e487b7160e01b600052604160045260246000fd5b600082601f83011261028057600080fd5b813567ffffffffffffffff8082111561029b5761029b610259565b604051601f8301601f19908116603f011681019082821181831017156102c3576102c3610259565b816040528381528660208588010111156102dc57600080fd5b836020870160208301376000602085830101528094505050505092915050565b60008060006060848603121561031157600080fd5b833567ffffffffffffffff8082111561032957600080fd5b6103358783880161026f565b9450602086013591508082111561034b57600080fd5b506103588682870161026f565b925050604084013590509250925092565b60006020828403121561037b57600080fd5b5035919050565b6000815180845260005b818110156103a85760208185018101518683018201520161038c565b506000602082860101526020601f19601f83011685010191505092915050565b6080815260006103db6080830187610382565b82810360208401526103ed8187610382565b604084019590955250506001600160a01b039190911660609091015292915050565b6060815260006104226060830186610382565b82810360208401526104348186610382565b91505082604083015294935050505056fe60806040526002805460ff191660121790553480156200001e57600080fd5b5060405162000ac638038062000ac6833981016040819052620000419162000194565b60006200004f8582620002b8565b5060016200005e8482620002b8565b506003829055600680546001600160a01b0319166001600160a01b0383169081179091556000818152600460209081526040808320869055518581527fddf252ad1be2c89b69c2b068fc378daa952ba7f163c4a11628f55a4df523b3ef910160405180910390a35050505062000384565b634e487b7160e01b600052604160045260246000fd5b600082601f830112620000f757600080fd5b81516001600160401b0380821115620001145762000114620000cf565b604051601f8301601f19908116603f011681019082821181831017156200013f576200013f620000cf565b816040528381526020925086838588010111156200015c57600080fd5b600091505b8382101562000180578582018301518183018401529082019062000161565b600093810190920192909252949350505050565b60008060008060808587031215620001ab57600080fd5b84516001600160401b0380821115620001c357600080fd5b620001d188838901620000e5565b95506020870151915080821115620001e857600080fd5b50620001f787828801620000e5565b60408701516060880151919550935090506001600160a01b03811681146200021e57600080fd5b939692955090935050565b600181811c908216806200023e57607f821691505b6020821081036200025f57634e487b7160e01b600052602260045260246000fd5b50919050565b601f821115620002b357600081815260208120601f850160051c810160208610156200028e5750805b601f850160051c820191505b81811015620002af578281556001016200029a565b5050505b505050565b81516001600160401b03811115620002d457620002d4620000cf565b620002ec81620002e5845462000229565b8462000265565b602080601f8311600181146200032457600084156200030b5750858301515b600019600386901b1c1916600185901b178555620002af565b600085815260208120601f198616915b82811015620003555788860151825594840194600190910190840162000334565b5085821015620003745787850151600019600388901b60f8161c191681555b5050505050600190811b01905550565b61073280620003946000396000f3fe608060405234801561001057600080fd5b506004361061009e5760003560e01c806370a082311161006657806370a082311461012d5780638da5cb5b1461014d57806395d89b4114610178578063a9059cbb14610180578063dd62ed3e1461019357600080fd5b806306fdde03146100a3578063095ea7b3146100c157806318160ddd146100e457806323b872dd146100fb578063313ce5671461010e575b600080fd5b6100ab6101be565b6040516100b89190610561565b60405180910390f35b6100d46100cf3660046105cb565b61024c565b60405190151581526020016100b8565b6100ed60035481565b6040519081526020016100b8565b6100d46101093660046105f5565b6102b9565b60025461011b9060ff1681565b60405160ff90911681526020016100b8565b6100ed61013b366004610631565b60046020526000908152604090205481565b600654610160906001600160a01b031681565b6040516001600160a01b0390911681526020016100b8565b6100ab610470565b6100d461018e3660046105cb565b61047d565b6100ed6101a1366004610653565b600560209081526000928352604080842090915290825290205481565b600080546101cb90610686565b80601f01602080910402602001604051908101604052809291908181526020018280546101f790610686565b80156102445780601f1061021957610100808354040283529160200191610244565b820191906000526020600020905b81548152906001019060200180831161022757829003601f168201915b505050505081565b3360008181526005602090815260408083206001600160a01b038716808552925280832085905551919290917f8c5be1e5ebec7d5bd14f71427d1e84f3dd0314c0f7b2291e5b200ac8c7c3b925906102a79086815260200190565b60405180910390a35060015b92915050565b6001600160a01b03831660009081526004602052604081205482111561031d5760405162461bcd60e51b8152602060048201526014602482015273496e73756666696369656e742062616c616e636560601b60448201526064015b60405180910390fd5b6001600160a01b03841660009081526005602090815260408083203384529091529020548211156103855760405162461bcd60e51b8152602060048201526012602482015271105b1b1bddd85b98d948195e18d95959195960721b6044820152606401610314565b6001600160a01b038416600090815260046020526040812080548492906103ad9084906106d6565b90915550506001600160a01b038316600090815260046020526040812080548492906103da9084906106e9565b90915550506001600160a01b0384166000908152600560209081526040808320338452909152812080548492906104129084906106d6565b92505081905550826001600160a01b0316846001600160a01b03167fddf252ad1be2c89b69c2b068fc378daa952ba7f163c4a11628f55a4df523b3ef8460405161045e91815260200190565b60405180910390a35060019392505050565b600180546101cb90610686565b336000908152600460205260408120548211156104d35760405162461bcd60e51b8152602060048201526014602482015273496e73756666696369656e742062616c616e636560601b6044820152606401610314565b33600090815260046020526040812080548492906104f29084906106d6565b90915550506001600160a01b0383166000908152600460205260408120805484929061051f9084906106e9565b90915550506040518281526001600160a01b0384169033907fddf252ad1be2c89b69c2b068fc378daa952ba7f163c4a11628f55a4df523b3ef906020016102a7565b600060208083528351808285015260005b8181101561058e57858101830151858201604001528201610572565b506000604082860101526040601f19601f8301168501019250505092915050565b80356001600160a01b03811681146105c657600080fd5b919050565b600080604083850312156105de57600080fd5b6105e7836105af565b946020939093013593505050565b60008060006060848603121561060a57600080fd5b610613846105af565b9250610621602085016105af565b9150604084013590509250925092565b60006020828403121561064357600080fd5b61064c826105af565b9392505050565b6000806040838503121561066657600080fd5b61066f836105af565b915061067d602084016105af565b90509250929050565b600181811c9082168061069a57607f821691505b6020821081036106ba57634e487b7160e01b600052602260045260246000fd5b50919050565b634e487b7160e01b600052601160045260246000fd5b818103818111156102b3576102b36106c0565b808201808211156102b3576102b36106c056fea2646970667358221220cf94017142667c558406835714e9075ed9d44372da60c24bd12ee519f36ec6bf64736f6c63430008130033a26469706673582212204579b991605c2e7a249a1d5590a28ff96890898ab31df63c1688c4de805f20f764736f6c63430008130033",
  "linkReferences": {},
  "deployedLinkReferences": {}
}